{
  "transactions": [
    {
      "hash": "0x425d5b415c562a96595bec00f8665a68c7117509b7867b794cae207059a4353a",
      "transactionType": "CALL",
      "contractName": null,
      "contractAddress": "0x8865d8738e37671138d5270a7b4befee83dee904",
      "function": "createOrder(address,uint256,uint256,uint256,address,uint256,bytes32)",
      "arguments": [
        "0xee52Ce7D2c46F8B728D74a030efCB78885F90E25",
        "5",
        "20000000000000000",
        "5",
        "0x0000000000000000000000000000000000000000",
        "0",
        "0xde0e5e45506faa76df0f012154011186c0372f58a225ee074c54b7907da8827b"
      ],
      "transaction": {
        "from": "0xa36613f165d04ebb0e2ee821b3b2585137c148db",
        "to": "0x8865d8738e37671138d5270a7b4befee83dee904",
        "gas": "0x4c8b8",
        "value": "0x0",
        "input": "0xca5d8363000000000000000000000000ee52ce7d2c46f8b728d74a030efcb78885f90e25000000000000000000000000000000000000000000000000000000000000000500000000000000000000000000000000000000000000000000470de4df820000000000000000000000000000000000000000000000000000000000000000000500000000000000000000000000000000000000000000000000000000000000000000000000000000000000000000000000000000000000000000000000000000de0e5e45506faa76df0f012154011186c0372f58a225ee074c54b7907da8827b",
        "nonce": "0x24",
        "chainId": "0xa869"
      },
      "additionalContracts": [],
      "isFixedGasLimit": false
    },
    {
      "hash": "0x16c2de03a5f979af0f25c7af46be9dcdade120fe90394b463c8980cff33cad55",
      "transactionType": "CALL",
      "contractName": null,
      "contractAddress": "0xee52ce7d2c46f8b728d74a030efcb78885f90e25",
      "function": "setApprovalForAll(address,bool)",
      "arguments": [
        "0x8865d8738E37671138D5270A7B4befeE83DeE904",
        "true"
      ],
      "transaction": {
        "from": "0xa36613f165d04ebb0e2ee821b3b2585137c148db",
        "to": "0xee52ce7d2c46f8b728d74a030efcb78885f90e25",
        "gas": "0x116f2",
        "value": "0x0",
        "input": "0xa22cb4650000000000000000000000008865d8738e37671138d5270a7b4befee83dee9040000000000000000000000000000000000000000000000000000000000000001",
        "nonce": "0x25",
        "chainId": "0xa869"
      },
      "additionalContracts": [],
      "isFixedGasLimit": false
    }
  ],
  "receipts": [
    {
      "status": "0x1",
      "cumulativeGasUsed": "0x3456b",
      "logs": [
        {
          "address": "0x8865d8738e37671138d5270a7b4befee83dee904",
          "topics": [
            "0x6c08bd8c6f4fbeb76084d7f9b7995be32cf57949d81b7ffdc50ede5a54564281",
            "0x0000000000000000000000000000000000000000000000000000000000000001",
            "0x000000000000000000000000a36613f165d04ebb0e2ee821b3b2585137c148db",
            "0x000000000000000000000000ee52ce7d2c46f8b728d74a030efcb78885f90e25"
          ],
          "data": "0x000000000000000000000000000000000000000000000000000000000000000500000000000000000000000000000000000000000000000000470de4df820000000000000000000000000000000000000000000000000000000000000000000500000000000000000000000000000000000000000000000000000000000000000000000000000000000000000000000000000000000000000000000000000000de0e5e45506faa76df0f012154011186c0372f58a225ee074c54b7907da8827b",
          "blockHash": "0xac642c67ee62671bf6e1a62b4a777da793c9827f4aa229f41ce44f2c5944b9c8",
          "blockNumber": "0x3218470",
          "transactionHash": "0x16c2de03a5f979af0f25c7af46be9dcdade120fe90394b463c8980cff33cad55",
          "transactionIndex": "0x0",
          "logIndex": "0x0",
          "removed": false
        }
      ],
      "logsBloom": "0x00000000000000000000000000000000000000000000000000040000000000000000000000004000000000008000000000000000000000000000000000040004002000000000000000000000000000400000000000040000010000000000000000000000000000000000000000000000000000000000000000000000000000800000000000000000000000000000000000020000000000000000000000000000000000000000000000000000000000000800000000000000000000000000000000000000000000000200000000000000000000000000000000000000000040000000000000000000000040000000000000000000000000000000000000000000",
      "type": "0x2",
      "transactionHash": "0x16c2de03a5f979af0f25c7af46be9dcdade120fe90394b463c8980cff33cad55",
      "transactionIndex": "0x0",
      "blockHash": "0xac642c67ee62671bf6e1a62b4a777da793c9827f4aa229f41ce44f2c5944b9c8",
      "blockNumber": "0x3218470",
      "gasUsed": "0x3456b",
      "effectiveGasPrice": "0x2",
      "from": "0xa36613f165d04ebb0e2ee821b3b2585137c148db",
      "to": "0x8865d8738e37671138d5270a7b4befee83dee904",
      "contractAddress": null
    },
    {
      "status": "0x1",
      "cumulativeGasUsed": "0x40f5f",
      "logs": [
        {
          "address": "0xee52ce7d2c46f8b728d74a030efcb78885f90e25",
          "topics": [
            "0x17307eab39ab6107e8899845ad3d59bd9653f200f220920489ca2b5937696c31",
            "0x000000000000000000000000a36613f165d04ebb0e2ee821b3b2585137c148db",
            "0x0000000000000000000000008865d8738e37671138d5270a7b4befee83dee904"
          ],
          "data": "0x0000000000000000000000000000000000000000000000000000000000000001",
          "blockHash": "0xac642c67ee62671bf6e1a62b4a777da793c9827f4aa229f41ce44f2c5944b9c8",
          "blockNumber": "0x3218470",
          "transactionHash": "0x425d5b415c562a96595bec00f8665a68c7117509b7867b794cae207059a4353a",
          "transactionIndex": "0x1",
          "logIndex": "0x1",
          "removed": false
        }
      ],
      "logsBloom": "0x00000000000000000000000000000000000000000000000100000000000000000000000000000000000000000000000000000000000000000000000000000000002000000000400000000000000000000000080000000000000000000000000002000000000000000000000000000000000000000000008000000000000000000000000002000000000000000000000000000000000000000000000000000000000000000000000000000000000000000800000000000000000000000000000000000000000000000200000000000000000000000000000000000000000000000000200800000000000000000000000000000000000000000100000000000000",
      "type": "0x2",
      "transactionHash": "0x425d5b415c562a96595bec00f8665a68c7117509b7867b794cae207059a4353a",
      "transactionIndex": "0x1",
      "blockHash": "0xac642c67ee62671bf6e1a62b4a777da793c9827f4aa229f41ce44f2c5944b9c8",
      "blockNumber": "0x3218470",
      "gasUsed": "0xc9f4",
      "effectiveGasPrice": "0x2",
      "from": "0xa36613f165d04ebb0e2ee821b3b2585137c148db",
      "to": "0xee52ce7d2c46f8b728d74a030efcb78885f90e25",
      "contractAddress": null
    }
  ],
  "libraries": [],
  "pending": [],
  "returns": {},
  "timestamp": 1773052084035,
  "chain": 43113,
  "commit": "9db35be"
}