{
  "transactions": [
    {
      "hash": "0x4ad4929b86a298d4c0cb3a2deb21fa785c10500efdbc8955279acf00066d7217",
      "transactionType": "CALL",
      "contractName": null,
      "contractAddress": "0xdf767a5d5d14c60e5c31fdbd839106aa6dae34f8",
      "function": "fillOrder(uint256,address)",
      "arguments": [
        "3",
        "0x0000000000000000000000000000000000000000"
      ],
      "transaction": {
        "from": "0x667c1abd4e25be048b8217f90fc576780cca8218",
        "to": "0xdf767a5d5d14c60e5c31fdbd839106aa6dae34f8",
        "gas": "0x306b8",
        "value": "0x5c5edcbc290000",
        "input": "0x4aaecf5400000000000000000000000000000000000000000000000000000000000000030000000000000000000000000000000000000000000000000000000000000000",
        "nonce": "0x9b",
        "chainId": "0xa869"
      },
      "additionalContracts": [],
      "isFixedGasLimit": false
    }
  ],
  "receipts": [
    {
      "status": "0x1",
      "cumulativeGasUsed": "0x211b9",
      "logs": [
        {
          "address": "0xdf767a5d5d14c60e5c31fdbd839106aa6dae34f8",
          "topics": [
            "0x90ce530b25a8b29161eb6de8b29a7724abe3a8e18a7f19518c0898f6e6d15162",
            "0x0000000000000000000000000000000000000000000000000000000000000003",
            "0x000000000000000000000000a36613f165d04ebb0e2ee821b3b2585137c148db",
            "0x000000000000000000000000667c1abd4e25be048b8217f90fc576780cca8218"
          ],
          "data": "0x000000000000000000000000ee52ce7d2c46f8b728d74a030efcb78885f90e250000000000000000000000000000000000000000000000000000000000000005000000000000000000000000000000000000000000000000000000000000000ade0e5e45506faa76df0f012154011186c0372f58a225ee074c54b7907da8827b",
          "blockHash": "0x7789e2e9d098cfb2b77d12f4e8c677b84be1b3f57d3e88afa258089bb26df438",
          "blockNumber": "0x3214295",
          "transactionHash": "0x4ad4929b86a298d4c0cb3a2deb21fa785c10500efdbc8955279acf00066d7217",
          "transactionIndex": "0x0",
          "logIndex": "0x0",
          "removed": false
        },
        {
          "address": "0xee52ce7d2c46f8b728d74a030efcb78885f90e25",
          "topics": [
            "0xc3d58168c5ae7397731d063d5bbf3d657854427343f4c083240f7aacaa2d0f62",
            "0x000000000000000000000000df767a5d5d14c60e5c31fdbd839106aa6dae34f8",
            "0x000000000000000000000000a36613f165d04ebb0e2ee821b3b2585137c148db",
            "0x000000000000000000000000667c1abd4e25be048b8217f90fc576780cca8218"
          ],
          "data": "0x0000000000000000000000000000000000000000000000000000000000000005000000000000000000000000000000000000000000000000000000000000000a",
          "blockHash": "0x7789e2e9d098cfb2b77d12f4e8c677b84be1b3f57d3e88afa258089bb26df438",
          "blockNumber": "0x3214295",
          "transactionHash": "0x4ad4929b86a298d4c0cb3a2deb21fa785c10500efdbc8955279acf00066d7217",
          "transactionIndex": "0x0",
          "logIndex": "0x1",
          "removed": false
        }
      ],
      "logsBloom": "0x00000000000000000002000000000000000000000000001000000000000000000000000000000000000000010000000000000000020000000000000000002000002000000000000000000080000000000000000000000000000000000000000000001080000000000000000000000000000000000000008000000000000000000000000002000000000000000028000000000000000000000000000000000000000000000000100000000000000000000800000000800000000000000000400000000000000000000200000000000000000000000008002000000000000000000000000000000000000000000804000000000000000000000100080000000000",
      "type": "0x2",
      "transactionHash": "0x4ad4929b86a298d4c0cb3a2deb21fa785c10500efdbc8955279acf00066d7217",
      "transactionIndex": "0x0",
      "blockHash": "0x7789e2e9d098cfb2b77d12f4e8c677b84be1b3f57d3e88afa258089bb26df438",
      "blockNumber": "0x3214295",
      "gasUsed": "0x211b9",
      "effectiveGasPrice": "0x5d21dba00",
      "from": "0x667c1abd4e25be048b8217f90fc576780cca8218",
      "to": "0xdf767a5d5d14c60e5c31fdbd839106aa6dae34f8",
      "contractAddress": null
    }
  ],
  "libraries": [],
  "pending": [],
  "returns": {},
  "timestamp": 1773009061460,
  "chain": 43113,
  "commit": "7a9c8df"
}