{
  "transactions": [
    {
      "hash": "0x1228a63ab0d9816eb3f9c0935b1bba8d1af27aaa805d5f96bfa68a1a5b3589b8",
      "transactionType": "CALL",
      "contractName": null,
      "contractAddress": "0x8865d8738e37671138d5270a7b4befee83dee904",
      "function": "fillOrder(uint256)",
      "arguments": [
        "1"
      ],
      "transaction": {
        "from": "0x667c1abd4e25be048b8217f90fc576780cca8218",
        "to": "0x8865d8738e37671138d5270a7b4befee83dee904",
        "gas": "0x2f72e",
        "value": "0x5c5edcbc290000",
        "input": "0x67b830ad0000000000000000000000000000000000000000000000000000000000000001",
        "nonce": "0xa4",
        "chainId": "0xa869"
      },
      "additionalContracts": [],
      "isFixedGasLimit": false
    }
  ],
  "receipts": [
    {
      "status": "0x1",
      "cumulativeGasUsed": "0x20719",
      "logs": [
        {
          "address": "0x8865d8738e37671138d5270a7b4befee83dee904",
          "topics": [
            "0xa577d793b8a7c1f07d296bbe343f0131cef4e1b95a4b0f19df2c0faf921898b6",
            "0x0000000000000000000000000000000000000000000000000000000000000001",
            "0x000000000000000000000000a36613f165d04ebb0e2ee821b3b2585137c148db",
            "0x000000000000000000000000667c1abd4e25be048b8217f90fc576780cca8218"
          ],
          "data": "0x000000000000000000000000ee52ce7d2c46f8b728d74a030efcb78885f90e25000000000000000000000000000000000000000000000000000000000000000500000000000000000000000000000000000000000000000000470de4df820000000000000000000000000000000000000000000000000000000000000000000500000000000000000000000000000000000000000000000000000000000000000000000000000000000000000000000000000000000000000000000000000000de0e5e45506faa76df0f012154011186c0372f58a225ee074c54b7907da8827b",
          "blockHash": "0x9321e9cd04c81d74f7e9a921dc7444306af21b4b93c3e2e7f3c5d94c67b81141",
          "blockNumber": "0x3218486",
          "transactionHash": "0x1228a63ab0d9816eb3f9c0935b1bba8d1af27aaa805d5f96bfa68a1a5b3589b8",
          "transactionIndex": "0x0",
          "logIndex": "0x0",
          "removed": false
        },
        {
          "address": "0xee52ce7d2c46f8b728d74a030efcb78885f90e25",
          "topics": [
            "0xc3d58168c5ae7397731d063d5bbf3d657854427343f4c083240f7aacaa2d0f62",
            "0x0000000000000000000000008865d8738e37671138d5270a7b4befee83dee904",
            "0x000000000000000000000000a36613f165d04ebb0e2ee821b3b2585137c148db",
            "0x000000000000000000000000667c1abd4e25be048b8217f90fc576780cca8218"
          ],
          "data": "0x00000000000000000000000000000000000000000000000000000000000000050000000000000000000000000000000000000000000000000000000000000005",
          "blockHash": "0x9321e9cd04c81d74f7e9a921dc7444306af21b4b93c3e2e7f3c5d94c67b81141",
          "blockNumber": "0x3218486",
          "transactionHash": "0x1228a63ab0d9816eb3f9c0935b1bba8d1af27aaa805d5f96bfa68a1a5b3589b8",
          "transactionIndex": "0x0",
          "logIndex": "0x1",
          "removed": false
        }
      ],
      "logsBloom": "0x00000000000000000002000000000000000200000000000100000020000000000000000000004000000000000000000000000000000000000000000000042004002000000000400000000080000000000000080000040000010000000000000000000000000000000000000000000000000000000000008000000000000000000000000002000000000000000008000000000000000000000000000000000000000000000000000000000000000100000800000000000000000000000000000000000000000000000200000000000000000000000008000000000000000040000000000000000000000000000000000000000000000000000100080000000000",
      "type": "0x2",
      "transactionHash": "0x1228a63ab0d9816eb3f9c0935b1bba8d1af27aaa805d5f96bfa68a1a5b3589b8",
      "transactionIndex": "0x0",
      "blockHash": "0x9321e9cd04c81d74f7e9a921dc7444306af21b4b93c3e2e7f3c5d94c67b81141",
      "blockNumber": "0x3218486",
      "gasUsed": "0x20719",
      "effectiveGasPrice": "0x2",
      "from": "0x667c1abd4e25be048b8217f90fc576780cca8218",
      "to": "0x8865d8738e37671138d5270a7b4befee83dee904",
      "contractAddress": null
    }
  ],
  "libraries": [],
  "pending": [],
  "returns": {},
  "timestamp": 1773052134950,
  "chain": 43113,
  "commit": "9db35be"
}