{
  "transactions": [
    {
      "hash": "0x129d1e9e68eeab432923343e64cf338a699b327499c39498dd663d3fd80e483d",
      "transactionType": "CALL",
      "contractName": null,
      "contractAddress": "0xdf767a5d5d14c60e5c31fdbd839106aa6dae34f8",
      "function": "createOrder(address,uint256,uint256,uint256,address,bytes32)",
      "arguments": [
        "0xee52Ce7D2c46F8B728D74a030efCB78885F90E25",
        "5",
        "20000000000000000",
        "10",
        "0x0000000000000000000000000000000000000000",
        "0xde0e5e45506faa76df0f012154011186c0372f58a225ee074c54b7907da8827b"
      ],
      "transaction": {
        "from": "0xa36613f165d04ebb0e2ee821b3b2585137c148db",
        "to": "0xdf767a5d5d14c60e5c31fdbd839106aa6dae34f8",
        "gas": "0x4267b",
        "value": "0x0",
        "input": "0x03aca540000000000000000000000000ee52ce7d2c46f8b728d74a030efcb78885f90e25000000000000000000000000000000000000000000000000000000000000000500000000000000000000000000000000000000000000000000470de4df820000000000000000000000000000000000000000000000000000000000000000000a0000000000000000000000000000000000000000000000000000000000000000de0e5e45506faa76df0f012154011186c0372f58a225ee074c54b7907da8827b",
        "nonce": "0x1c",
        "chainId": "0xa869"
      },
      "additionalContracts": [],
      "isFixedGasLimit": false
    },
    {
      "hash": "0xa5e768f2bc621ca9aaa53fef0eb44f3b80168532b5830ad2de7f555f4256b4cb",
      "transactionType": "CALL",
      "contractName": null,
      "contractAddress": "0xee52ce7d2c46f8b728d74a030efcb78885f90e25",
      "function": "setApprovalForAll(address,bool)",
      "arguments": [
        "0xdf767a5d5D14c60e5C31fDBD839106AA6dAe34F8",
        "true"
      ],
      "transaction": {
        "from": "0xa36613f165d04ebb0e2ee821b3b2585137c148db",
        "to": "0xee52ce7d2c46f8b728d74a030efcb78885f90e25",
        "gas": "0xab93",
        "value": "0x0",
        "input": "0xa22cb465000000000000000000000000df767a5d5d14c60e5c31fdbd839106aa6dae34f80000000000000000000000000000000000000000000000000000000000000001",
        "nonce": "0x1d",
        "chainId": "0xa869"
      },
      "additionalContracts": [],
      "isFixedGasLimit": false
    }
  ],
  "receipts": [
    {
      "status": "0x1",
      "cumulativeGasUsed": "0x30138",
      "logs": [
        {
          "address": "0xdf767a5d5d14c60e5c31fdbd839106aa6dae34f8",
          "topics": [
            "0xf5f305acb62ea0d7f5e14d69a03d125ce5e3215a3b0bcee1da51de6da0c35c4d",
            "0x0000000000000000000000000000000000000000000000000000000000000003",
            "0x000000000000000000000000ee52ce7d2c46f8b728d74a030efcb78885f90e25",
            "0x0000000000000000000000000000000000000000000000000000000000000005"
          ],
          "data": "0x00000000000000000000000000000000000000000000000000470de4df820000000000000000000000000000000000000000000000000000000000000000000a",
          "blockHash": "0x90cc1e45e00f8bf6a2aa2bbe98298c05d4c7f715d8798ffa84cfa221ba11f437",
          "blockNumber": "0x321428b",
          "transactionHash": "0xa5e768f2bc621ca9aaa53fef0eb44f3b80168532b5830ad2de7f555f4256b4cb",
          "transactionIndex": "0x0",
          "logIndex": "0x0",
          "removed": false
        }
      ],
      "logsBloom": "0x00000000000000000000000000000000000000000000000000040000000000000000000000000000000000000000000000000000020000000000000000000000000010000000000000000000000000000000000000000000000000000000000000000080000000000000000000000000000000000000000000000000000000800000000002000000000000000020001000020800000000000000000000000000000000000000000000000000000000010000000000800000000000000000400000000000000000000000000000000000000000000000000000080000000000000000000000000000000000000800000000000000000000000000000000000000",
      "type": "0x2",
      "transactionHash": "0xa5e768f2bc621ca9aaa53fef0eb44f3b80168532b5830ad2de7f555f4256b4cb",
      "transactionIndex": "0x0",
      "blockHash": "0x90cc1e45e00f8bf6a2aa2bbe98298c05d4c7f715d8798ffa84cfa221ba11f437",
      "blockNumber": "0x321428b",
      "gasUsed": "0x30138",
      "effectiveGasPrice": "0x5d21dba00",
      "from": "0xa36613f165d04ebb0e2ee821b3b2585137c148db",
      "to": "0xdf767a5d5d14c60e5c31fdbd839106aa6dae34f8",
      "contractAddress": null
    },
    {
      "status": "0x1",
      "cumulativeGasUsed": "0x7c38",
      "logs": [
        {
          "address": "0xee52ce7d2c46f8b728d74a030efcb78885f90e25",
          "topics": [
            "0x17307eab39ab6107e8899845ad3d59bd9653f200f220920489ca2b5937696c31",
            "0x000000000000000000000000a36613f165d04ebb0e2ee821b3b2585137c148db",
            "0x000000000000000000000000df767a5d5d14c60e5c31fdbd839106aa6dae34f8"
          ],
          "data": "0x0000000000000000000000000000000000000000000000000000000000000001",
          "blockHash": "0x94f367388e7915ab607e65deab34e91280c7bfc557a72cf70cbfdde3b422e417",
          "blockNumber": "0x321428c",
          "transactionHash": "0x129d1e9e68eeab432923343e64cf338a699b327499c39498dd663d3fd80e483d",
          "transactionIndex": "0x0",
          "logIndex": "0x0",
          "removed": false
        }
      ],
      "logsBloom": "0x00000000000000000000000000000000000000000000001000000000000000000000000000000000000000000000000000000000000000000000000000000000002000000000000000000000000000000000000000000000000000000000000002001000000000000000000000000000000000000000008000000000000000000000000002000000000000000000000000000000000000000000000000000000000000000000100000000000000000000800000000000000000000000000000000000000000000000200000000000000000000000000000000000000000000000000200800000000000000000000000000000000000000000100000000000000",
      "type": "0x2",
      "transactionHash": "0x129d1e9e68eeab432923343e64cf338a699b327499c39498dd663d3fd80e483d",
      "transactionIndex": "0x0",
      "blockHash": "0x94f367388e7915ab607e65deab34e91280c7bfc557a72cf70cbfdde3b422e417",
      "blockNumber": "0x321428c",
      "gasUsed": "0x7c38",
      "effectiveGasPrice": "0x5d21dba00",
      "from": "0xa36613f165d04ebb0e2ee821b3b2585137c148db",
      "to": "0xee52ce7d2c46f8b728d74a030efcb78885f90e25",
      "contractAddress": null
    }
  ],
  "libraries": [],
  "pending": [],
  "returns": {},
  "timestamp": 1773009030308,
  "chain": 43113,
  "commit": "7a9c8df"
}