{
  "transactions": [
    {
      "hash": "0xba47d54c82190e294a0e8eb7a163dbb4fed583d6a1e94a7adb2474b29e9f7d2e",
      "transactionType": "CALL",
      "contractName": null,
      "contractAddress": "0xdf767a5d5d14c60e5c31fdbd839106aa6dae34f8",
      "function": "createOrder(address,uint256,uint256,uint256,address,bytes32)",
      "arguments": [
        "0xee52Ce7D2c46F8B728D74a030efCB78885F90E25",
        "5",
        "200000000000000000",
        "10",
        "0x0000000000000000000000000000000000000000",
        "0xde0e5e45506faa76df0f012154011186c0372f58a225ee074c54b7907da8827b"
      ],
      "transaction": {
        "from": "0xa36613f165d04ebb0e2ee821b3b2585137c148db",
        "to": "0xdf767a5d5d14c60e5c31fdbd839106aa6dae34f8",
        "gas": "0x4268c",
        "value": "0x0",
        "input": "0x03aca540000000000000000000000000ee52ce7d2c46f8b728d74a030efcb78885f90e25000000000000000000000000000000000000000000000000000000000000000500000000000000000000000000000000000000000000000002c68af0bb140000000000000000000000000000000000000000000000000000000000000000000a0000000000000000000000000000000000000000000000000000000000000000de0e5e45506faa76df0f012154011186c0372f58a225ee074c54b7907da8827b",
        "nonce": "0x19",
        "chainId": "0xa869"
      },
      "additionalContracts": [],
      "isFixedGasLimit": false
    },
    {
      "hash": "0xcb692a8cdf775728e4a7510558933ac1d7711b2e42630bde73e389e78b2cfcbb",
      "transactionType": "CALL",
      "contractName": null,
      "contractAddress": "0xee52ce7d2c46f8b728d74a030efcb78885f90e25",
      "function": "setApprovalForAll(address,bool)",
      "arguments": [
        "0xdf767a5d5D14c60e5C31fDBD839106AA6dAe34F8",
        "true"
      ],
      "transaction": {
        "from": "0xa36613f165d04ebb0e2ee821b3b2585137c148db",
        "to": "0xee52ce7d2c46f8b728d74a030efcb78885f90e25",
        "gas": "0xab93",
        "value": "0x0",
        "input": "0xa22cb465000000000000000000000000df767a5d5d14c60e5c31fdbd839106aa6dae34f80000000000000000000000000000000000000000000000000000000000000001",
        "nonce": "0x1a",
        "chainId": "0xa869"
      },
      "additionalContracts": [],
      "isFixedGasLimit": false
    }
  ],
  "receipts": [
    {
      "status": "0x1",
      "cumulativeGasUsed": "0x30144",
      "logs": [
        {
          "address": "0xdf767a5d5d14c60e5c31fdbd839106aa6dae34f8",
          "topics": [
            "0xf5f305acb62ea0d7f5e14d69a03d125ce5e3215a3b0bcee1da51de6da0c35c4d",
            "0x0000000000000000000000000000000000000000000000000000000000000002",
            "0x000000000000000000000000ee52ce7d2c46f8b728d74a030efcb78885f90e25",
            "0x0000000000000000000000000000000000000000000000000000000000000005"
          ],
          "data": "0x00000000000000000000000000000000000000000000000002c68af0bb140000000000000000000000000000000000000000000000000000000000000000000a",
          "blockHash": "0xaa935c83bc31639be375564ca022711face0cc7bae67cb0f417ebc39f86d5b1a",
          "blockNumber": "0x32141ce",
          "transactionHash": "0xcb692a8cdf775728e4a7510558933ac1d7711b2e42630bde73e389e78b2cfcbb",
          "transactionIndex": "0x0",
          "logIndex": "0x0",
          "removed": false
        }
      ],
      "logsBloom": "0x04000000000000000000000000000000000000000000000000040000000000000000000000000000000000000000000000000000000000000000000000000000000010000000000000000000000000000000000000000000000000000000000000000080000000000000000000000000000000000000000000000000000000800000000002000000000000000020001000020800000000000000000000000000000000000000000000000100000000010000000000000000000000000000000000000000000000000000000000000000000000000000000000080000000000000000000000000000000000000800000000000000008000000000000000000000",
      "type": "0x2",
      "transactionHash": "0xcb692a8cdf775728e4a7510558933ac1d7711b2e42630bde73e389e78b2cfcbb",
      "transactionIndex": "0x0",
      "blockHash": "0xaa935c83bc31639be375564ca022711face0cc7bae67cb0f417ebc39f86d5b1a",
      "blockNumber": "0x32141ce",
      "gasUsed": "0x30144",
      "effectiveGasPrice": "0x3b9aca00",
      "from": "0xa36613f165d04ebb0e2ee821b3b2585137c148db",
      "to": "0xdf767a5d5d14c60e5c31fdbd839106aa6dae34f8",
      "contractAddress": null
    },
    {
      "status": "0x1",
      "cumulativeGasUsed": "0x37d7c",
      "logs": [
        {
          "address": "0xee52ce7d2c46f8b728d74a030efcb78885f90e25",
          "topics": [
            "0x17307eab39ab6107e8899845ad3d59bd9653f200f220920489ca2b5937696c31",
            "0x000000000000000000000000a36613f165d04ebb0e2ee821b3b2585137c148db",
            "0x000000000000000000000000df767a5d5d14c60e5c31fdbd839106aa6dae34f8"
          ],
          "data": "0x0000000000000000000000000000000000000000000000000000000000000001",
          "blockHash": "0xaa935c83bc31639be375564ca022711face0cc7bae67cb0f417ebc39f86d5b1a",
          "blockNumber": "0x32141ce",
          "transactionHash": "0xba47d54c82190e294a0e8eb7a163dbb4fed583d6a1e94a7adb2474b29e9f7d2e",
          "transactionIndex": "0x1",
          "logIndex": "0x1",
          "removed": false
        }
      ],
      "logsBloom": "0x00000000000000000000000000000000000000000000001000000000000000000000000000000000000000000000000000000000000000000000000000000000002000000000000000000000000000000000000000000000000000000000000002001000000000000000000000000000000000000000008000000000000000000000000002000000000000000000000000000000000000000000000000000000000000000000100000000000000000000800000000000000000000000000000000000000000000000200000000000000000000000000000000000000000000000000200800000000000000000000000000000000000000000100000000000000",
      "type": "0x2",
      "transactionHash": "0xba47d54c82190e294a0e8eb7a163dbb4fed583d6a1e94a7adb2474b29e9f7d2e",
      "transactionIndex": "0x1",
      "blockHash": "0xaa935c83bc31639be375564ca022711face0cc7bae67cb0f417ebc39f86d5b1a",
      "blockNumber": "0x32141ce",
      "gasUsed": "0x7c38",
      "effectiveGasPrice": "0x3b9aca00",
      "from": "0xa36613f165d04ebb0e2ee821b3b2585137c148db",
      "to": "0xee52ce7d2c46f8b728d74a030efcb78885f90e25",
      "contractAddress": null
    }
  ],
  "libraries": [],
  "pending": [],
  "returns": {},
  "timestamp": 1773008442402,
  "chain": 43113,
  "commit": "7a9c8df"
}